{
  "contractName": "DigiChambers",
  "abi": [
    {
      "inputs": [],
      "payable": true,
      "stateMutability": "payable",
      "type": "constructor"
    },
    {
      "payable": true,
      "stateMutability": "payable",
      "type": "fallback"
    },
    {
      "constant": true,
      "inputs": [],
      "name": "getAddress",
      "outputs": [
        {
          "name": "",
          "type": "address"
        }
      ],
      "payable": false,
      "stateMutability": "view",
      "type": "function"
    },
    {
      "constant": false,
      "inputs": [
        {
          "name": "_UniqueString",
          "type": "string"
        }
      ],
      "name": "issueCeritificateofOrigin",
      "outputs": [
        {
          "name": "",
          "type": "string"
        }
      ],
      "payable": false,
      "stateMutability": "nonpayable",
      "type": "function"
    },
    {
      "constant": true,
      "inputs": [],
      "name": "lastCert",
      "outputs": [
        {
          "name": "",
          "type": "string"
        }
      ],
      "payable": false,
      "stateMutability": "view",
      "type": "function"
    },
    {
      "constant": true,
      "inputs": [
        {
          "name": "_UniqueString",
          "type": "string"
        }
      ],
      "name": "verifyCeritificateofOrigin",
      "outputs": [
        {
          "name": "",
          "type": "bool"
        }
      ],
      "payable": false,
      "stateMutability": "view",
      "type": "function"
    }
  ],
  "bytecode": "0x60806040526040805190810160405280600b81526020017f50237226615e74313130390000000000000000000000000000000000000000008152506000908051906020019061004f929190610055565b506100fa565b828054600181600116156101000203166002900490600052602060002090601f016020900481019282601f1061009657805160ff19168380011785556100c4565b828001600101855582156100c4579182015b828111156100c35782518255916020019190600101906100a8565b5b5090506100d191906100d5565b5090565b6100f791905b808211156100f35760008160009055506001016100db565b5090565b90565b61074c806101096000396000f3fe608060405260043610610062576000357c0100000000000000000000000000000000000000000000000000000000900463ffffffff16806338cc4831146100645780635e662088146100bb578063740e30a9146101fc578063adcbde04146102dc575b005b34801561007057600080fd5b5061007961036c565b604051808273ffffffffffffffffffffffffffffffffffffffff1673ffffffffffffffffffffffffffffffffffffffff16815260200191505060405180910390f35b3480156100c757600080fd5b50610181600480360360208110156100de57600080fd5b81019080803590602001906401000000008111156100fb57600080fd5b82018360208201111561010d57600080fd5b8035906020019184600183028401116401000000008311171561012f57600080fd5b91908080601f016020809104026020016040519081016040528093929190818152602001838380828437600081840152601f19601f820116905080830192505050505050509192919290505050610374565b6040518080602001828103825283818151815260200191508051906020019080838360005b838110156101c15780820151818401526020810190506101a6565b50505050905090810190601f1680156101ee5780820380516001836020036101000a031916815260200191505b509250505060405180910390f35b34801561020857600080fd5b506102c26004803603602081101561021f57600080fd5b810190808035906020019064010000000081111561023c57600080fd5b82018360208201111561024e57600080fd5b8035906020019184600183028401116401000000008311171561027057600080fd5b91908080601f016020809104026020016040519081016040528093929190818152602001838380828437600081840152601f19601f82011690508083019250505050505050919291929050505061048a565b604051808215151515815260200191505060405180910390f35b3480156102e857600080fd5b506102f1610580565b6040518080602001828103825283818151815260200191508051906020019080838360005b83811015610331578082015181840152602081019050610316565b50505050905090810190601f16801561035e5780820380516001836020036101000a031916815260200191505b509250505060405180910390f35b600030905090565b6060808260006040516020018083805190602001908083835b6020831015156103b2578051825260208201915060208101905060208303925061038d565b6001836020036101000a0380198251168184511680821785525050505050509050018280546001816001161561010002031660029004801561042b5780601f1061040957610100808354040283529182019161042b565b820191906000526020600020905b815481529060010190602001808311610417575b5050925050506040516020818303038152906040529050600181908060018154018082558091505090600182039060005260206000200160009091929091909150908051906020019061047f92919061067b565b505080915050919050565b6000806000905060008090505b6001805490508110156105765761055f6001828154811015156104b657fe5b906000526020600020018054600181600116156101000203166002900480601f0160208091040260200160405190810160405280929190818152602001828054600181600116156101000203166002900480156105545780601f1061052957610100808354040283529160200191610554565b820191906000526020600020905b81548152906001019060200180831161053757829003601f168201915b50505050508561063f565b1561056957600191505b8080600101915050610497565b5080915050919050565b606060018080805490500381548110151561059757fe5b906000526020600020018054600181600116156101000203166002900480601f0160208091040260200160405190810160405280929190818152602001828054600181600116156101000203166002900480156106355780601f1061060a57610100808354040283529160200191610635565b820191906000526020600020905b81548152906001019060200180831161061857829003601f168201915b5050505050905090565b600061064b8383610653565b905092915050565b600081518351148015610673575081805190602001208380519060200120145b905092915050565b828054600181600116156101000203166002900490600052602060002090601f016020900481019282601f106106bc57805160ff19168380011785556106ea565b828001600101855582156106ea579182015b828111156106e95782518255916020019190600101906106ce565b5b5090506106f791906106fb565b5090565b61071d91905b80821115610719576000816000905550600101610701565b5090565b9056fea165627a7a7230582044b2eb6dd6ad71544bb70ff545417f90379b65fb96600d9dd4703b3dfb0d60f50029",
  "source": "// SPDX-License-Identifier: MIT\r\npragma solidity 0.5.0;\r\n\r\ncontract DigiChambers{\r\n    \r\n    constructor() public payable{}\r\n    //ethers receive and sent section\r\n    function() external payable{}\r\n\r\n    function getAddress()  public view returns (address){\r\n        return address(this);\r\n    }\r\n\r\n\r\n    // Secret Key for Certificate Creation\r\n    string secKey = \"P#r&a^t1109\";\r\n    string [] issuedCert;\r\n\r\n\r\n    // issue a Certificate of origin\r\n    function issueCeritificateofOrigin(string memory _UniqueString) public returns(string  memory){\r\n        string memory certificateUnique = string(abi.encodePacked(_UniqueString, secKey));\r\n        issuedCert.push(certificateUnique);\r\n        return certificateUnique;\r\n    }\r\n    function lastCert() public view returns(string memory){\r\n        return issuedCert[issuedCert.length - 1];\r\n    }\r\n    function memcmp(bytes memory a, bytes memory b) internal pure returns(bool){\r\n        return (a.length == b.length) && (keccak256(a) == keccak256(b));\r\n    }\r\n    function strcmp(string memory a, string memory b) internal pure returns(bool){\r\n        return memcmp(bytes(a), bytes(b));\r\n    }\r\n\r\n\r\n    // verfiy and audit the certificate of origin\r\n    function verifyCeritificateofOrigin(string memory _UniqueString) public view returns(bool){\r\n        bool flag = false;\r\n        for (uint i = 0; i < issuedCert.length; i++)\r\n            if (strcmp(issuedCert[i], _UniqueString))\r\n                flag = true;\r\n        \r\n        return flag;        \r\n    }\r\n    \r\n}",
  "sourcePath": "D:\\Supply-Chain-and-Logistics-Blockchain\\backend\\blockchain\\contracts\\DigiChambers.sol",
  "compiler": {
    "name": "solc",
    "version": "0.5.0+commit.1d4f565a.Emscripten.clang"
  },
  "schemaVersion": "3.4.10",
  "updatedAt": "2022-10-08T12:28:34.432Z",
  "networkType": "ethereum",
  "devdoc": {
    "methods": {}
  },
  "userdoc": {
    "methods": {}
  }
}