{
  "contractName": "Retailer",
  "abi": [
    {
      "inputs": [],
      "payable": true,
      "stateMutability": "payable",
      "type": "constructor"
    },
    {
      "payable": true,
      "stateMutability": "payable",
      "type": "fallback"
    },
    {
      "constant": true,
      "inputs": [],
      "name": "getAddress",
      "outputs": [
        {
          "name": "",
          "type": "address"
        }
      ],
      "payable": false,
      "stateMutability": "view",
      "type": "function"
    },
    {
      "constant": false,
      "inputs": [
        {
          "name": "_product",
          "type": "string"
        },
        {
          "name": "_material",
          "type": "string"
        },
        {
          "name": "_capacity",
          "type": "int256"
        },
        {
          "name": "_price",
          "type": "int256"
        }
      ],
      "name": "createProduct",
      "outputs": [],
      "payable": false,
      "stateMutability": "nonpayable",
      "type": "function"
    },
    {
      "constant": true,
      "inputs": [
        {
          "name": "_product",
          "type": "string"
        }
      ],
      "name": "getProduct",
      "outputs": [
        {
          "components": [
            {
              "name": "material",
              "type": "string"
            },
            {
              "name": "capacity",
              "type": "int256"
            },
            {
              "name": "price",
              "type": "int256"
            }
          ],
          "name": "",
          "type": "tuple[]"
        }
      ],
      "payable": false,
      "stateMutability": "view",
      "type": "function"
    }
  ],
  "bytecode": "0x608060405261081a806100136000396000f3fe608060405260043610610057576000357c0100000000000000000000000000000000000000000000000000000000900463ffffffff16806338cc48311461005957806368111cce14610084578063769bdf1b146100c1575b005b34801561006557600080fd5b5061006e6100ea565b60405161007b9190610681565b60405180910390f35b34801561009057600080fd5b506100ab60048036036100a6919081019061049b565b6100f2565b6040516100b8919061069c565b60405180910390f35b3480156100cd57600080fd5b506100e860048036036100e391908101906104dc565b610273565b005b600030905090565b60606000826040518082805190602001908083835b60208310151561012c5780518252602082019150602081019050602083039250610107565b6001836020036101000a0380198251168184511680821785525050505050509050019150509081526020016040518091039020805480602002602001604051908101604052809291908181526020016000905b82821015610268578382906000526020600020906003020160606040519081016040529081600082018054600181600116156101000203166002900480601f01602080910402602001604051908101604052809291908181526020018280546001816001161561010002031660029004801561023c5780601f106102115761010080835404028352916020019161023c565b820191906000526020600020905b81548152906001019060200180831161021f57829003601f168201915b50505050508152602001600182015481526020016002820154815250508152602001906001019061017f565b505050509050919050565b61027b61036a565b83816000018190525082816020018181525050818160400181815250506000856040518082805190602001908083835b6020831015156102d057805182526020820191506020810190506020830392506102ab565b6001836020036101000a03801982511681845116808217855250505050505090500191505090815260200160405180910390208190806001815401808255809150509060018203906000526020600020906003020160009091929091909150600082015181600001908051906020019061034b92919061038c565b5060208201518160010155604082015181600201555050505050505050565b6060604051908101604052806060815260200160008152602001600081525090565b828054600181600116156101000203166002900490600052602060002090601f016020900481019282601f106103cd57805160ff19168380011785556103fb565b828001600101855582156103fb579182015b828111156103fa5782518255916020019190600101906103df565b5b509050610408919061040c565b5090565b61042e91905b8082111561042a576000816000905550600101610412565b5090565b90565b600061043d8235610783565b905092915050565b600082601f830112151561045857600080fd5b813561046b610466826106eb565b6106be565b9150808252602083016020830185838301111561048757600080fd5b61049283828461078d565b50505092915050565b6000602082840312156104ad57600080fd5b600082013567ffffffffffffffff8111156104c757600080fd5b6104d384828501610445565b91505092915050565b600080600080608085870312156104f257600080fd5b600085013567ffffffffffffffff81111561050c57600080fd5b61051887828801610445565b945050602085013567ffffffffffffffff81111561053557600080fd5b61054187828801610445565b935050604061055287828801610431565b925050606061056387828801610431565b91505092959194509250565b61057881610747565b82525050565b600061058982610724565b808452602084019350836020820285016105a285610717565b60005b848110156105db5783830388526105bd838351610631565b92506105c88261073a565b91506020880197506001810190506105a5565b508196508694505050505092915050565b6105f581610759565b82525050565b60006106068261072f565b80845261061a81602086016020860161079c565b610623816107cf565b602085010191505092915050565b6000606083016000830151848203600086015261064e82826105fb565b915050602083015161066360208601826105ec565b50604083015161067660408601826105ec565b508091505092915050565b6000602082019050610696600083018461056f565b92915050565b600060208201905081810360008301526106b6818461057e565b905092915050565b6000604051905081810181811067ffffffffffffffff821117156106e157600080fd5b8060405250919050565b600067ffffffffffffffff82111561070257600080fd5b601f19601f8301169050602081019050919050565b6000602082019050919050565b600081519050919050565b600081519050919050565b6000602082019050919050565b600061075282610763565b9050919050565b6000819050919050565b600073ffffffffffffffffffffffffffffffffffffffff82169050919050565b6000819050919050565b82818337600083830152505050565b60005b838110156107ba57808201518184015260208101905061079f565b838111156107c9576000848401525b50505050565b6000601f19601f830116905091905056fea265627a7a7230582014d2a87a117cec5ff6838b644d92bcd23c90703c8b2bc4f9673f43d3ddc1146f6c6578706572696d656e74616cf50037",
  "source": "// SPDX-License-Identifier: MIT\r\npragma solidity 0.5.0;\r\npragma experimental ABIEncoderV2;\r\n\r\ncontract Retailer{\r\n    \r\n    constructor() public payable{}\r\n    //ethers receive and sent section\r\n    function() external payable{}\r\n\r\n    function getAddress()  public view returns (address){\r\n        return address(this);\r\n    }\r\n\r\n\r\n    // Product Creation and Retrieval\r\n    \r\n    struct Material{\r\n        string material;\r\n        int capacity;\r\n        int price;\r\n    }\r\n    mapping(string => Material[]) product;\r\n\r\n    function createProduct(string memory _product, string memory _material, int _capacity, int _price) public{\r\n        Material memory m;\r\n        m.material = _material;\r\n        m.capacity = _capacity;\r\n        m.price = _price;\r\n        product[_product].push(m);\r\n    }\r\n\r\n    function getProduct(string memory _product) public view returns(Material[] memory){\r\n        return product[_product];\r\n    }\r\n\r\n\r\n\r\n}",
  "sourcePath": "D:\\Supply-Chain-and-Logistics-Blockchain\\backend\\blockchain\\contracts\\Retailer.sol",
  "compiler": {
    "name": "solc",
    "version": "0.5.0+commit.1d4f565a.Emscripten.clang"
  },
  "schemaVersion": "3.4.10",
  "updatedAt": "2022-10-08T12:28:20.985Z",
  "networkType": "ethereum",
  "devdoc": {
    "methods": {}
  },
  "userdoc": {
    "methods": {}
  }
}