{
  "contractName": "test",
  "abi": [
    {
      "payable": true,
      "stateMutability": "payable",
      "type": "fallback"
    },
    {
      "constant": true,
      "inputs": [],
      "name": "getAddress",
      "outputs": [
        {
          "name": "",
          "type": "address"
        }
      ],
      "payable": false,
      "stateMutability": "view",
      "type": "function"
    },
    {
      "constant": true,
      "inputs": [],
      "name": "get",
      "outputs": [
        {
          "name": "",
          "type": "string"
        }
      ],
      "payable": false,
      "stateMutability": "pure",
      "type": "function"
    }
  ],
  "bytecode": "0x608060405234801561001057600080fd5b506101a6806100206000396000f3fe60806040526004361061004c576000357c0100000000000000000000000000000000000000000000000000000000900463ffffffff16806338cc48311461004e5780636d4ce63c146100a5575b005b34801561005a57600080fd5b50610063610135565b604051808273ffffffffffffffffffffffffffffffffffffffff1673ffffffffffffffffffffffffffffffffffffffff16815260200191505060405180910390f35b3480156100b157600080fd5b506100ba61013d565b6040518080602001828103825283818151815260200191508051906020019080838360005b838110156100fa5780820151818401526020810190506100df565b50505050905090810190601f1680156101275780820380516001836020036101000a031916815260200191505b509250505060405180910390f35b600030905090565b60606040805190810160405280601f81526020017f426c6f636b636861696e20436f6e6e656374696f6e2073756363657366756c0081525090509056fea165627a7a7230582022137d5d1dfcadfbf06fe5302ac76c4d68821e9fe7e45033ab27ae63ffc710d80029",
  "source": "// SPDX-License-Identifier: MIT\r\npragma solidity 0.5.0;\r\nimport \"./Manufacturer.sol\";\r\n\r\ncontract test {\r\n\r\n    function() external payable{}\r\n\r\n    function getAddress()  public view returns (address){\r\n        return address(this);\r\n    }\r\n\r\n    function get() public pure returns (string memory) {\r\n        return \"Blockchain Connection succesful\";\r\n    }\r\n}\r\n\r\n// test.class_defaults.from = '0x535ec26742feD9Fe9Bd98D851F60B17e621ca68e'\r\n",
  "sourcePath": "D:\\Supply-Chain-and-Logistics-Blockchain\\backend\\blockchain\\contracts\\Test.sol",
  "compiler": {
    "name": "solc",
    "version": "0.5.0+commit.1d4f565a.Emscripten.clang"
  },
  "schemaVersion": "3.4.10",
  "updatedAt": "2022-10-08T12:28:16.702Z",
  "networkType": "ethereum",
  "devdoc": {
    "methods": {}
  },
  "userdoc": {
    "methods": {}
  }
}